:100000000C9474000C94B1000C94B1000C94B100E9
:100010000C94B1000C94B1000C94B1000C949600B7
:100020000C94B1000C94B1000C94B1000C94B1008C
:100030000C94B1000C94B1000C94B1000C94B1007C
:100040000C94B1000C94B1000C94B1000C94B1006C
:100050000C94B1000C94B1000C94B1000C94B1005C
:100060000C94B1000C94B1000C94B1000C94B1004C
:100070000C94B1000C94B1000C94B1000C94B1003C
:100080000C94B1000C94B1000C94B1000C94B1002C
:100090000C94B1000C94B1000C94B1000C94B1001C
:1000A0000C94B1000C94B1000C94B1000C94B1000C
:1000B0000C94B1000C94B1000C94B1000C94B100FC
:1000C0000C94B1000C94B1000C94B1000C94B100EC
:1000D0000C94B1000C94B1000C94B1000C94B100DC
:1000E0000C94B1000C94B10011241FBECFEFCDBF12
:1000F000DFE7DEBF0E94A8000C947E00F894FFCFDB
:10010000E0E4F4E08081806480838481806484837F
:10011000E0E0FAE081E0828711822AE43CE426A351
:0C01200037A3118683878FE08083089549
:10012C001F920F920FB60F9211248F9380E480933D
:10013C00470481E080930B0A8F910F900FBE0F90B4
:04014C001F90189553
:100150009CE088ED84BF909368000E9480007894B2
:02016000FFCFCF
:040162000C940000F9
:00000001FF
